{
  "contractName": "PathFinder",
  "abi": [
    {
      "constant": true,
      "inputs": [
        {
          "name": "",
          "type": "uint256"
        }
      ],
      "name": "targets",
      "outputs": [
        {
          "name": "id",
          "type": "uint256"
        },
        {
          "name": "name",
          "type": "string"
        },
        {
          "name": "latitude",
          "type": "string"
        },
        {
          "name": "longitude",
          "type": "string"
        }
      ],
      "payable": false,
      "stateMutability": "view",
      "type": "function"
    },
    {
      "constant": true,
      "inputs": [],
      "name": "markerCount",
      "outputs": [
        {
          "name": "",
          "type": "uint256"
        }
      ],
      "payable": false,
      "stateMutability": "view",
      "type": "function"
    },
    {
      "constant": true,
      "inputs": [],
      "name": "targetCount",
      "outputs": [
        {
          "name": "",
          "type": "uint256"
        }
      ],
      "payable": false,
      "stateMutability": "view",
      "type": "function"
    },
    {
      "constant": true,
      "inputs": [
        {
          "name": "",
          "type": "uint256"
        }
      ],
      "name": "markers",
      "outputs": [
        {
          "name": "id",
          "type": "uint256"
        },
        {
          "name": "description",
          "type": "string"
        },
        {
          "name": "latitude",
          "type": "string"
        },
        {
          "name": "longitude",
          "type": "string"
        },
        {
          "name": "progress",
          "type": "string"
        },
        {
          "name": "status",
          "type": "string"
        },
        {
          "name": "user_address",
          "type": "address"
        }
      ],
      "payable": false,
      "stateMutability": "view",
      "type": "function"
    },
    {
      "inputs": [],
      "payable": false,
      "stateMutability": "nonpayable",
      "type": "constructor"
    },
    {
      "constant": false,
      "inputs": [
        {
          "name": "_description",
          "type": "string"
        },
        {
          "name": "_latitude",
          "type": "string"
        },
        {
          "name": "_longitude",
          "type": "string"
        },
        {
          "name": "_progress",
          "type": "string"
        },
        {
          "name": "_status",
          "type": "string"
        },
        {
          "name": "_user",
          "type": "address"
        }
      ],
      "name": "createMarker",
      "outputs": [],
      "payable": false,
      "stateMutability": "nonpayable",
      "type": "function"
    },
    {
      "constant": false,
      "inputs": [
        {
          "name": "_name",
          "type": "string"
        },
        {
          "name": "_latitude",
          "type": "string"
        },
        {
          "name": "_longitude",
          "type": "string"
        }
      ],
      "name": "createTarget",
      "outputs": [],
      "payable": false,
      "stateMutability": "nonpayable",
      "type": "function"
    },
    {
      "constant": false,
      "inputs": [
        {
          "name": "_description",
          "type": "string"
        },
        {
          "name": "_latitude",
          "type": "string"
        },
        {
          "name": "_longitude",
          "type": "string"
        },
        {
          "name": "_progress",
          "type": "string"
        },
        {
          "name": "_status",
          "type": "string"
        },
        {
          "name": "_hash",
          "type": "bytes32"
        },
        {
          "name": "sig",
          "type": "bytes"
        }
      ],
      "name": "submitMarker",
      "outputs": [],
      "payable": false,
      "stateMutability": "nonpayable",
      "type": "function"
    },
    {
      "constant": true,
      "inputs": [
        {
          "name": "_id",
          "type": "uint256"
        }
      ],
      "name": "getMarker",
      "outputs": [
        {
          "name": "",
          "type": "uint256"
        },
        {
          "name": "",
          "type": "string"
        },
        {
          "name": "",
          "type": "string"
        },
        {
          "name": "",
          "type": "string"
        },
        {
          "name": "",
          "type": "string"
        },
        {
          "name": "",
          "type": "string"
        },
        {
          "name": "",
          "type": "address"
        }
      ],
      "payable": false,
      "stateMutability": "view",
      "type": "function"
    },
    {
      "constant": true,
      "inputs": [
        {
          "name": "_id",
          "type": "uint256"
        }
      ],
      "name": "getTarget",
      "outputs": [
        {
          "name": "",
          "type": "uint256"
        },
        {
          "name": "",
          "type": "string"
        },
        {
          "name": "",
          "type": "string"
        },
        {
          "name": "",
          "type": "string"
        }
      ],
      "payable": false,
      "stateMutability": "view",
      "type": "function"
    },
    {
      "constant": false,
      "inputs": [
        {
          "name": "_id",
          "type": "uint256"
        },
        {
          "name": "_latitude",
          "type": "string"
        },
        {
          "name": "_longitude",
          "type": "string"
        }
      ],
      "name": "updateMarker",
      "outputs": [],
      "payable": false,
      "stateMutability": "nonpayable",
      "type": "function"
    },
    {
      "constant": true,
      "inputs": [],
      "name": "getMarkerCount",
      "outputs": [
        {
          "name": "",
          "type": "uint256"
        }
      ],
      "payable": false,
      "stateMutability": "view",
      "type": "function"
    },
    {
      "constant": true,
      "inputs": [],
      "name": "getTargetCount",
      "outputs": [
        {
          "name": "",
          "type": "uint256"
        }
      ],
      "payable": false,
      "stateMutability": "view",
      "type": "function"
    }
  ],
  "bytecode": "0x60806040526000805560006001553480156200001a57600080fd5b50620000cd6040518060400160405280600881526020017f432e492e412e4d2e0000000000000000000000000000000000000000000000008152506040518060400160405280600981526020017f33382e31383935353300000000000000000000000000000000000000000000008152506040518060400160405280600981526020017f31352e35353234383000000000000000000000000000000000000000000000008152506200018560201b60201c565b6200017f6040518060400160405280601a81526020017f446970617274696d656e746f20646920496e6765676e657269610000000000008152506040518060400160405280600981526020017f33382e32353836393800000000000000000000000000000000000000000000008152506040518060400160405280600981526020017f31352e35393732373000000000000000000000000000000000000000000000008152506200018560201b60201c565b620002ed565b6001600081548092919060010191905055506040518060800160405280600154815260200184815260200183815260200182815250600260006001548152602001908152602001600020600082015181600001556020820151816001019080519060200190620001f79291906200023e565b506040820151816002019080519060200190620002169291906200023e565b506060820151816003019080519060200190620002359291906200023e565b50905050505050565b828054600181600116156101000203166002900490600052602060002090601f016020900481019282601f106200028157805160ff1916838001178555620002b2565b82800160010185558215620002b2579182015b82811115620002b157825182559160200191906001019062000294565b5b509050620002c19190620002c5565b5090565b620002ea91905b80821115620002e6576000816000905550600101620002cc565b5090565b90565b6123f880620002fd6000396000f3fe608060405234801561001057600080fd5b50600436106100b45760003560e01c80637e63e87f116100715780637e63e87f14610a2c578063b01285cd14610b88578063bc2aba3c14610ba6578063c95c4f6a14610e37578063da1a224714610e55578063e6acc7cd1461120d576100b4565b80630547a0af146100b95780630a39ce02146103f05780631b5ba428146105765780634a1293b7146105945780634f20fe79146105b25780636dd8981b1461079b575b600080fd5b6103ee600480360360c08110156100cf57600080fd5b81019080803590602001906401000000008111156100ec57600080fd5b8201836020820111156100fe57600080fd5b8035906020019184600183028401116401000000008311171561012057600080fd5b91908080601f016020809104026020016040519081016040528093929190818152602001838380828437600081840152601f19601f8201169050808301925050505050505091929192908035906020019064010000000081111561018357600080fd5b82018360208201111561019557600080fd5b803590602001918460018302840111640100000000831117156101b757600080fd5b91908080601f016020809104026020016040519081016040528093929190818152602001838380828437600081840152601f19601f8201169050808301925050505050505091929192908035906020019064010000000081111561021a57600080fd5b82018360208201111561022c57600080fd5b8035906020019184600183028401116401000000008311171561024e57600080fd5b91908080601f016020809104026020016040519081016040528093929190818152602001838380828437600081840152601f19601f820116905080830192505050505050509192919290803590602001906401000000008111156102b157600080fd5b8201836020820111156102c357600080fd5b803590602001918460018302840111640100000000831117156102e557600080fd5b91908080601f016020809104026020016040519081016040528093929190818152602001838380828437600081840152601f19601f8201169050808301925050505050505091929192908035906020019064010000000081111561034857600080fd5b82018360208201111561035a57600080fd5b8035906020019184600183028401116401000000008311171561037c57600080fd5b91908080601f016020809104026020016040519081016040528093929190818152602001838380828437600081840152601f19601f820116905080830192505050505050509192919290803573ffffffffffffffffffffffffffffffffffffffff169060200190929190505050611393565b005b61041c6004803603602081101561040657600080fd5b81019080803590602001909291905050506114f0565b60405180858152602001806020018060200180602001848103845287818151815260200191508051906020019080838360005b8381101561046a57808201518184015260208101905061044f565b50505050905090810190601f1680156104975780820380516001836020036101000a031916815260200191505b50848103835286818151815260200191508051906020019080838360005b838110156104d05780820151818401526020810190506104b5565b50505050905090810190601f1680156104fd5780820380516001836020036101000a031916815260200191505b50848103825285818151815260200191508051906020019080838360005b8381101561053657808201518184015260208101905061051b565b50505050905090810190601f1680156105635780820380516001836020036101000a031916815260200191505b5097505050505050505060405180910390f35b61057e6116e8565b6040518082815260200191505060405180910390f35b61059c6116ee565b6040518082815260200191505060405180910390f35b610799600480360360608110156105c857600080fd5b81019080803590602001906401000000008111156105e557600080fd5b8201836020820111156105f757600080fd5b8035906020019184600183028401116401000000008311171561061957600080fd5b91908080601f016020809104026020016040519081016040528093929190818152602001838380828437600081840152601f19601f8201169050808301925050505050505091929192908035906020019064010000000081111561067c57600080fd5b82018360208201111561068e57600080fd5b803590602001918460018302840111640100000000831117156106b057600080fd5b91908080601f016020809104026020016040519081016040528093929190818152602001838380828437600081840152601f19601f8201169050808301925050505050505091929192908035906020019064010000000081111561071357600080fd5b82018360208201111561072557600080fd5b8035906020019184600183028401116401000000008311171561074757600080fd5b91908080601f016020809104026020016040519081016040528093929190818152602001838380828437600081840152601f19601f8201169050808301925050505050505091929192905050506116f8565b005b6107c7600480360360208110156107b157600080fd5b81019080803590602001909291905050506117ab565b6040518088815260200180602001806020018060200180602001806020018773ffffffffffffffffffffffffffffffffffffffff1673ffffffffffffffffffffffffffffffffffffffff16815260200186810386528c818151815260200191508051906020019080838360005b8381101561084f578082015181840152602081019050610834565b50505050905090810190601f16801561087c5780820380516001836020036101000a031916815260200191505b5086810385528b818151815260200191508051906020019080838360005b838110156108b557808201518184015260208101905061089a565b50505050905090810190601f1680156108e25780820380516001836020036101000a031916815260200191505b5086810384528a818151815260200191508051906020019080838360005b8381101561091b578082015181840152602081019050610900565b50505050905090810190601f1680156109485780820380516001836020036101000a031916815260200191505b50868103835289818151815260200191508051906020019080838360005b83811015610981578082015181840152602081019050610966565b50505050905090810190601f1680156109ae5780820380516001836020036101000a031916815260200191505b50868103825288818151815260200191508051906020019080838360005b838110156109e75780820151818401526020810190506109cc565b50505050905090810190601f168015610a145780820380516001836020036101000a031916815260200191505b509c5050505050505050505050505060405180910390f35b610b8660048036036060811015610a4257600080fd5b810190808035906020019092919080359060200190640100000000811115610a6957600080fd5b820183602082011115610a7b57600080fd5b80359060200191846001830284011164010000000083111715610a9d57600080fd5b91908080601f016020809104026020016040519081016040528093929190818152602001838380828437600081840152601f19601f82011690508083019250505050505050919291929080359060200190640100000000811115610b0057600080fd5b820183602082011115610b1257600080fd5b80359060200191846001830284011164010000000083111715610b3457600080fd5b91908080601f016020809104026020016040519081016040528093929190818152602001838380828437600081840152601f19601f820116905080830192505050505050509192919290505050611b98565b005b610b90611bf3565b6040518082815260200191505060405180910390f35b610bd260048036036020811015610bbc57600080fd5b8101908080359060200190929190505050611bf9565b6040518088815260200180602001806020018060200180602001806020018773ffffffffffffffffffffffffffffffffffffffff1673ffffffffffffffffffffffffffffffffffffffff16815260200186810386528c818151815260200191508051906020019080838360005b83811015610c5a578082015181840152602081019050610c3f565b50505050905090810190601f168015610c875780820380516001836020036101000a031916815260200191505b5086810385528b818151815260200191508051906020019080838360005b83811015610cc0578082015181840152602081019050610ca5565b50505050905090810190601f168015610ced5780820380516001836020036101000a031916815260200191505b5086810384528a818151815260200191508051906020019080838360005b83811015610d26578082015181840152602081019050610d0b565b50505050905090810190601f168015610d535780820380516001836020036101000a031916815260200191505b50868103835289818151815260200191508051906020019080838360005b83811015610d8c578082015181840152602081019050610d71565b50505050905090810190601f168015610db95780820380516001836020036101000a031916815260200191505b50868103825288818151815260200191508051906020019080838360005b83811015610df2578082015181840152602081019050610dd7565b50505050905090810190601f168015610e1f5780820380516001836020036101000a031916815260200191505b509c5050505050505050505050505060405180910390f35b610e3f611f53565b6040518082815260200191505060405180910390f35b61120b600480360360e0811015610e6b57600080fd5b8101908080359060200190640100000000811115610e8857600080fd5b820183602082011115610e9a57600080fd5b80359060200191846001830284011164010000000083111715610ebc57600080fd5b91908080601f016020809104026020016040519081016040528093929190818152602001838380828437600081840152601f19601f82011690508083019250505050505050919291929080359060200190640100000000811115610f1f57600080fd5b820183602082011115610f3157600080fd5b80359060200191846001830284011164010000000083111715610f5357600080fd5b91908080601f016020809104026020016040519081016040528093929190818152602001838380828437600081840152601f19601f82011690508083019250505050505050919291929080359060200190640100000000811115610fb657600080fd5b820183602082011115610fc857600080fd5b80359060200191846001830284011164010000000083111715610fea57600080fd5b91908080601f016020809104026020016040519081016040528093929190818152602001838380828437600081840152601f19601f8201169050808301925050505050505091929192908035906020019064010000000081111561104d57600080fd5b82018360208201111561105f57600080fd5b8035906020019184600183028401116401000000008311171561108157600080fd5b91908080601f016020809104026020016040519081016040528093929190818152602001838380828437600081840152601f19601f820116905080830192505050505050509192919290803590602001906401000000008111156110e457600080fd5b8201836020820111156110f657600080fd5b8035906020019184600183028401116401000000008311171561111857600080fd5b91908080601f016020809104026020016040519081016040528093929190818152602001838380828437600081840152601f19601f820116905080830192505050505050509192919290803590602001909291908035906020019064010000000081111561118557600080fd5b82018360208201111561119757600080fd5b803590602001918460018302840111640100000000831117156111b957600080fd5b91908080601f016020809104026020016040519081016040528093929190818152602001838380828437600081840152601f19601f820116905080830192505050505050509192919290505050611f5c565b005b6112396004803603602081101561122357600080fd5b8101908080359060200190929190505050611f82565b60405180858152602001806020018060200180602001848103845287818151815260200191508051906020019080838360005b8381101561128757808201518184015260208101905061126c565b50505050905090810190601f1680156112b45780820380516001836020036101000a031916815260200191505b50848103835286818151815260200191508051906020019080838360005b838110156112ed5780820151818401526020810190506112d2565b50505050905090810190601f16801561131a5780820380516001836020036101000a031916815260200191505b50848103825285818151815260200191508051906020019080838360005b83811015611353578082015181840152602081019050611338565b50505050905090810190601f1680156113805780820380516001836020036101000a031916815260200191505b5097505050505050505060405180910390f35b60008081548092919060010191905055506040518060e0016040528060005481526020018781526020018681526020018581526020018481526020018381526020018273ffffffffffffffffffffffffffffffffffffffff1681525060036000805481526020019081526020016000206000820151816000015560208201518160010190805190602001906114299291906122a7565b5060408201518160020190805190602001906114469291906122a7565b5060608201518160030190805190602001906114639291906122a7565b5060808201518160040190805190602001906114809291906122a7565b5060a082015181600501908051906020019061149d9291906122a7565b5060c08201518160060160006101000a81548173ffffffffffffffffffffffffffffffffffffffff021916908373ffffffffffffffffffffffffffffffffffffffff160217905550905050505050505050565b6002602052806000526040600020600091509050806000015490806001018054600181600116156101000203166002900480601f0160208091040260200160405190810160405280929190818152602001828054600181600116156101000203166002900480156115a25780601f10611577576101008083540402835291602001916115a2565b820191906000526020600020905b81548152906001019060200180831161158557829003601f168201915b505050505090806002018054600181600116156101000203166002900480601f0160208091040260200160405190810160405280929190818152602001828054600181600116156101000203166002900480156116405780601f1061161557610100808354040283529160200191611640565b820191906000526020600020905b81548152906001019060200180831161162357829003601f168201915b505050505090806003018054600181600116156101000203166002900480601f0160208091040260200160405190810160405280929190818152602001828054600181600116156101000203166002900480156116de5780601f106116b3576101008083540402835291602001916116de565b820191906000526020600020905b8154815290600101906020018083116116c157829003601f168201915b5050505050905084565b60005481565b6000600154905090565b60016000815480929190600101919050555060405180608001604052806001548152602001848152602001838152602001828152506002600060015481526020019081526020016000206000820151816000015560208201518160010190805190602001906117689291906122a7565b5060408201518160020190805190602001906117859291906122a7565b5060608201518160030190805190602001906117a29291906122a7565b50905050505050565b6000606080606080606060006003600089815260200190815260200160002060000154600360008a8152602001908152602001600020600101600360008b8152602001908152602001600020600201600360008c8152602001908152602001600020600301600360008d8152602001908152602001600020600401600360008e8152602001908152602001600020600501600360008f815260200190815260200160002060060160009054906101000a900473ffffffffffffffffffffffffffffffffffffffff16858054600181600116156101000203166002900480601f0160208091040260200160405190810160405280929190818152602001828054600181600116156101000203166002900480156119085780601f106118dd57610100808354040283529160200191611908565b820191906000526020600020905b8154815290600101906020018083116118eb57829003601f168201915b50505050509550848054600181600116156101000203166002900480601f0160208091040260200160405190810160405280929190818152602001828054600181600116156101000203166002900480156119a45780601f10611979576101008083540402835291602001916119a4565b820191906000526020600020905b81548152906001019060200180831161198757829003601f168201915b50505050509450838054600181600116156101000203166002900480601f016020809104026020016040519081016040528092919081815260200182805460018160011615610100020316600290048015611a405780601f10611a1557610100808354040283529160200191611a40565b820191906000526020600020905b815481529060010190602001808311611a2357829003601f168201915b50505050509350828054600181600116156101000203166002900480601f016020809104026020016040519081016040528092919081815260200182805460018160011615610100020316600290048015611adc5780601f10611ab157610100808354040283529160200191611adc565b820191906000526020600020905b815481529060010190602001808311611abf57829003601f168201915b50505050509250818054600181600116156101000203166002900480601f016020809104026020016040519081016040528092919081815260200182805460018160011615610100020316600290048015611b785780601f10611b4d57610100808354040283529160200191611b78565b820191906000526020600020905b815481529060010190602001808311611b5b57829003601f168201915b505050505091509650965096509650965096509650919395979092949650565b81600360008581526020019081526020016000206002019080519060200190611bc2929190612327565b5080600360008581526020019081526020016000206003019080519060200190611bed929190612327565b50505050565b60015481565b6003602052806000526040600020600091509050806000015490806001018054600181600116156101000203166002900480601f016020809104026020016040519081016040528092919081815260200182805460018160011615610100020316600290048015611cab5780601f10611c8057610100808354040283529160200191611cab565b820191906000526020600020905b815481529060010190602001808311611c8e57829003601f168201915b505050505090806002018054600181600116156101000203166002900480601f016020809104026020016040519081016040528092919081815260200182805460018160011615610100020316600290048015611d495780601f10611d1e57610100808354040283529160200191611d49565b820191906000526020600020905b815481529060010190602001808311611d2c57829003601f168201915b505050505090806003018054600181600116156101000203166002900480601f016020809104026020016040519081016040528092919081815260200182805460018160011615610100020316600290048015611de75780601f10611dbc57610100808354040283529160200191611de7565b820191906000526020600020905b815481529060010190602001808311611dca57829003601f168201915b505050505090806004018054600181600116156101000203166002900480601f016020809104026020016040519081016040528092919081815260200182805460018160011615610100020316600290048015611e855780601f10611e5a57610100808354040283529160200191611e85565b820191906000526020600020905b815481529060010190602001808311611e6857829003601f168201915b505050505090806005018054600181600116156101000203166002900480601f016020809104026020016040519081016040528092919081815260200182805460018160011615610100020316600290048015611f235780601f10611ef857610100808354040283529160200191611f23565b820191906000526020600020905b815481529060010190602001808311611f0657829003601f168201915b5050505050908060060160009054906101000a900473ffffffffffffffffffffffffffffffffffffffff16905087565b60008054905090565b6000611f6883836121c5565b9050611f78888888888886611393565b5050505050505050565b600060608060606002600086815260200190815260200160002060000154600260008781526020019081526020016000206001016002600088815260200190815260200160002060020160026000898152602001908152602001600020600301828054600181600116156101000203166002900480601f0160208091040260200160405190810160405280929190818152602001828054600181600116156101000203166002900480156120775780601f1061204c57610100808354040283529160200191612077565b820191906000526020600020905b81548152906001019060200180831161205a57829003601f168201915b50505050509250818054600181600116156101000203166002900480601f0160208091040260200160405190810160405280929190818152602001828054600181600116156101000203166002900480156121135780601f106120e857610100808354040283529160200191612113565b820191906000526020600020905b8154815290600101906020018083116120f657829003601f168201915b50505050509150808054600181600116156101000203166002900480601f0160208091040260200160405190810160405280929190818152602001828054600181600116156101000203166002900480156121af5780601f10612184576101008083540402835291602001916121af565b820191906000526020600020905b81548152906001019060200180831161219257829003601f168201915b5050505050905093509350935093509193509193565b60008060008060418551146121e057600093505050506122a1565b6020850151925060408501519150606085015160001a9050601b8160ff16101561220b57601b810190505b601b8160ff16141580156122235750601c8160ff1614155b1561223457600093505050506122a1565b60018682858560405160008152602001604052604051808581526020018460ff1660ff1681526020018381526020018281526020019450505050506020604051602081039080840390855afa158015612291573d6000803e3d6000fd5b5050506020604051035193505050505b92915050565b828054600181600116156101000203166002900490600052602060002090601f016020900481019282601f106122e857805160ff1916838001178555612316565b82800160010185558215612316579182015b828111156123155782518255916020019190600101906122fa565b5b50905061232391906123a7565b5090565b828054600181600116156101000203166002900490600052602060002090601f016020900481019282601f1061236857805160ff1916838001178555612396565b82800160010185558215612396579182015b8281111561239557825182559160200191906001019061237a565b5b5090506123a391906123a7565b5090565b6123c991905b808211156123c55760008160009055506001016123ad565b5090565b9056fea165627a7a723058204df2f9ef1a43d41aaa05448e2a17a2cabca6fa4593eeba364bec9b519a78bb010029",
  "source": "pragma solidity ^0.5.0;\r\n\r\ncontract PathFinder {\r\n\r\n  uint public markerCount = 0;\r\n  uint public targetCount = 0;\r\n\r\n  struct Marker {\r\n    uint id;\r\n    string description;\r\n    string latitude;\r\n    string longitude;\r\n    string progress;\r\n    string status;\r\n    address user_address;\r\n  }\r\n\r\n\r\n  struct Target {\r\n    uint id;\r\n    string name;\r\n    string latitude;\r\n    string longitude;\r\n  }\r\n\r\n  mapping(uint => Target) public targets;\r\n\r\n  mapping(uint => Marker) public markers;\r\n\r\n  constructor() public {\r\n    createTarget(\"C.I.A.M.\", \"38.189553\", \"15.552480\");\r\n    createTarget(\"Dipartimento di Ingegneria\", \"38.258698\", \"15.597270\" );\r\n  }\r\n\r\n  function createMarker(string memory _description, string memory _latitude, string memory _longitude, string memory _progress, string memory _status, address _user) public {\r\n    markerCount ++;\r\n    markers[markerCount] = Marker(markerCount, _description, _latitude, _longitude, _progress, _status, _user);\r\n  }\r\n\r\n  function createTarget(string memory _name, string memory _latitude, string memory _longitude) public {\r\n    targetCount ++;\r\n    targets[targetCount] = Target(targetCount, _name, _latitude, _longitude);\r\n  }\r\n\r\n  function submitMarker(string memory _description, string memory _latitude, string memory _longitude, string memory _progress, string memory _status, bytes32 _hash, bytes memory sig) public {\r\n    address user = recoverAddr(_hash, sig);\r\n    createMarker(_description, _latitude, _longitude, _progress, _status, user);\r\n  }\r\n\r\n  function getMarker(uint _id) public view returns (uint, string memory, string memory, string memory, string memory, string memory, address) {\r\n    return (\r\n      markers[_id].id, markers[_id].description, markers[_id].latitude, markers[_id].longitude, markers[_id].progress, markers[_id].status, markers[_id].user_address\r\n      );\r\n  }\r\n\r\n  function getTarget(uint _id) public view returns (uint, string memory, string memory, string memory) {\r\n    return (\r\n      targets[_id].id, targets[_id].name, targets[_id].latitude, targets[_id].longitude\r\n      );\r\n  }\r\n\r\n  function updateMarker(uint _id, string memory _latitude, string memory _longitude) public {\r\n    markers[_id].latitude = _latitude;\r\n    markers[_id].longitude = _longitude;\r\n  }\r\n\r\n  function getMarkerCount() public view returns (uint) {\r\n    return markerCount;\r\n  }\r\n\r\n  function getTargetCount() public view returns (uint) {\r\n    return targetCount;\r\n  }\r\n\r\n  function recoverAddr(bytes32 hash, bytes memory sig) internal pure returns (address) {\r\n    bytes32 r;\r\n    bytes32 s;\r\n    uint8 v;\r\n\r\n    //Check the signature length\r\n    if (sig.length != 65) {\r\n      return (address(0));\r\n    }\r\n\r\n    // Divide the signature in r, s and v variables\r\n    // ecrecover takes the signature parameters, and the only way to get them\r\n    // currently is to use assembly.\r\n    // solium-disable-next-line security/no-inline-assembly\r\n    assembly {\r\n      r := mload(add(sig, 32))\r\n      s := mload(add(sig, 64))\r\n      v := byte(0, mload(add(sig, 96)))\r\n    }\r\n\r\n    // Version of signature should be 27 or 28, but 0 and 1 are also possible versions\r\n    if (v < 27) {\r\n      v += 27;\r\n    }\r\n\r\n    // If the version is correct return the signer address\r\n    if (v != 27 && v != 28) {\r\n      return (address(0));\r\n    } else {\r\n      return ecrecover(hash, v, r, s);\r\n    }\r\n  }\r\n\r\n\r\n\r\n}\r\n",
  "sourcePath": "C:/Users/markp/EthereumProjects/pathfinder_bis/contracts/PathFinder.sol",
  "compiler": {
    "name": "solc",
    "version": "0.5.8+commit.23d335f2.Emscripten.clang"
  },
  "schemaVersion": "3.0.11",
  "updatedAt": "2019-08-08T14:25:14.967Z",
  "devdoc": {
    "methods": {}
  },
  "userdoc": {
    "methods": {}
  }
}